:020000040800F2
:1000000000280020AD1100083D1100084311000830
:10001000491100084F1100085511000800000000A8
:100020000000000000000000000000005B1100085C
:100030006711000800000000731100087F1100081C
:10004000F5110008F5110008F5110008F511000878
:10005000F5110008F5110008F5110008F511000868
:10006000F5110008F5110008F5110008F511000858
:10007000F5110008F5110008F5110008F511000848
:10008000F5110008F5110008F5110008F511000838
:10009000F5110008F5110008F5110008F511000828
:1000A000F5110008F5110008F5110008F511000818
:1000B0008D110008F511000800000000F51100087E
:1000C000F51100080000000000000000F511000814
:1000D00000000000F5110008F51100080000000004
:1000E000F5110008F5110008F511000800000000E6
:1000F0000000000000000000000000000000000000
:0C01000000000000000000005FF808F1A3
:10010C0010B5054C237833B9044B13B10448AFF345
:10011C0000800123237010BD20000020000000008F
:10012C002428000808B5034B1BB103490348AFF35F
:10013C00008008BD000000002400002024280008D6
:10014C0080B500AF01224FF47061024801F04FFB03
:10015C0000BF80BD000C014080B584B000AF0346E9
:10016C00FB710023FB6015E00E4AFB6832F813109C
:10017C00FB790D4AD35C1A46FB6842FA03F3DBB2F7
:10018C0003F00103DBB21A46084801F030FBFB68B0
:10019C000133FB60FB68062BE6DD00BF00BF1037A8
:1001AC00BD4680BD482800083C280008000C0140D2
:1001BC0080B582B000AF03460A46FB711346BB7193
:1001CC00FFF7BEFFBB791846FFF7C6FFFB79032B81
:1001DC0026D801A252F823F0F5010008030200080A
:1001EC00110200081F02000800224FF480710F4812
:1001FC0001F0FDFA15E000224FF400710B4801F0FC
:10020C00F6FA0EE000224FF48061084801F0EFFA94
:10021C0007E000224FF40061044801F0E8FA00E026
:10022C0000BF00BF0837BD4680BD00BF000C0140B9
:10023C0080B582B000AF0346FB710B46BB71134611
:10024C007B71FB79032B45D801A252F823F000BF38
:10025C006D02000885020008A7020008BF02000812
:10026C00BB791F4AA2FB0323DB08DAB2FB791146E8
:10027C001846FFF79DFF2EE0BA79194BA3FB02132A
:10028C00D9080B469B000B445B00D31ADAB2FB79FE
:10029C0011461846FFF78CFF1DE07B79104AA2FB34
:1002AC000323DB08DAB2FB7911461846FFF780FF0F
:1002BC0011E07A790A4BA3FB0213D9080B469B0079
:1002CC000B445B00D31ADAB2FB7911461846FFF7E0
:1002DC006FFF00E000BF00BF0837BD4680BD00BF08
:1002EC00CDCCCCCC80B582B000AF03460A46FB71B6
:1002FC001346BB71FB79002B02D0012B23D046E0B7
:10030C00BB79032B12D0032B16DC012B02D0022B52
:10031C0006D011E0012208211F4801F068FA11E013
:10032C00012220211C4801F062FA0BE0012210216D
:10033C00194801F05CFA05E001220821164801F089
:10034C0056FA00BF23E0BB79032B13D0032B17DC29
:10035C00012B02D0022B06D012E0012240210E48C4
:10036C0001F045FA12E001224FF480710A4801F0C5
:10037C003EFA0BE001228021074801F038FA05E033
:10038C0001224021044801F032FA00BF00BF00BF37
:10039C000837BD4680BD00BF0008014080B500AFE6
:1003AC00022000F023FE0346002B19D0322102203C
:1003BC0000F0FCFDA34B1B78A34A1178A34A1278DA
:1003CC001846FFF735FF9F4B1B7801335A4203F059
:1003DC00030302F0030258BF5342DAB2994B1A706E
:1003EC009B4B1B78032B00F28C8001A252F823F05C
:1003FC000D0400082504000873040008C10400085B
:10040C00934B01221A70934B1A788F4B1A70C82198
:10041C00002000F0CBFD7BE0002000F0E7FD034660
:10042C00002B70D0C821002000F0C0FD012100205D
:10043C00FFF758FF844B1B78013BDAB2824B1A70E2
:10044C00814B1B78002B5ED1814B02221A70824BA0
:10045C001A787D4B1A70002000F002FB022100205C
:10046C00FFF740FF4FE0002000F0C0FD0346002BDB
:10047C004BD0C821002000F099FD02210020FFF78D
:10048C0031FF714B1B78013BDAB26F4B1A706E4B1C
:10049C001B78002B39D16E4B03221A706F4B1A78D4
:1004AC00694B1A70002000F0DBFA03210020FFF7E3
:1004BC0019FF2AE0002000F099FD0346002B26D0FE
:1004CC00C821002000F072FD03210020FFF70AFF75
:1004DC005D4B1B78013BDAB25B4B1A705A4B1B78A5
:1004EC00002B14D15A4B01221A705A4B1A78564BC6
:1004FC001A70002000F0B4FA01210020FFF7F2FE80
:10050C0005E000BF04E000BF02E000BF00E000BF58
:10051C00534B1B78032B00F28C8001A252F823F072
:10052C003D05000855050008A3050008F105000865
:10053C004B4B02221A70484B1A78444B1A70C82144
:10054C00012000F033FD7BE0012000F04FFD03465D
:10055C00002B70D0C821012000F028FD01210120C2
:10056C00FFF7C0FE394B1B78013BDAB2374B1A70E0
:10057C00364B1B78002B5ED1394B02221A70364B4E
:10058C001A78324B1A70012000F06AFA022101200D
:10059C00FFF7A8FE4FE0012000F028FD0346002BDA
:1005AC004BD0C821012000F001FD02210120FFF7F2
:1005BC0099FE264B1B78013BDAB2244B1A70234B65
:1005CC001B78002B39D1264B03221A70234B1A7837
:1005DC001E4B1A70012000F043FA03210120FFF793
:1005EC0081FE2AE0012000F001FD0346002B26D0FD
:1005FC00C821012000F0DAFC03210120FFF772FE74
:10060C00124B1B78013BDAB2104B1A700F4B1B7854
:10061C00002B14D1124B01221A700E4B1A780B4B73
:10062C001A70012000F01CFA01210120FFF75AFE7C
:10063C0005E000BF04E000BF02E000BF00E000BF27
:10064C0000BF80BD3F0000203C0000203D0000208A
:10065C0040000020000000200200002001000020CB
:10066C004100002080B500AFA34B1B78322B00F368
:10067C00D781142B04DA002B48D00A2B57D0CFE1AA
:10068C00143B1E2B00F2CC8101A252F823F000BFC8
:10069C00670700082D0A00082D0A00082D0A00081B
:1006AC002D0A00082D0A00082D0A00082D0A000842
:1006BC002D0A00082D0A0008350800082D0A00082C
:1006CC002D0A00082D0A00082D0A00082D0A000822
:1006DC002D0A00082D0A00082D0A00082D0A000812
:1006EC00210900082D0A00082D0A00082D0A00080F
:1006FC002D0A00082D0A00082D0A00082D0A0008F2
:10070C002D0A00082D0A0008EF0900087A4B0A226E
:10071C001A70032000F0A4F9784B00221A70784B61
:10072C0000221A703221022000F040FC83E1FFF716
:10073C0035FE002000F002FC0346012B06D0002001
:10074C0000F018FC0346012B40F06C816A4B14221C
:10075C001A70032000F084F964E1022000F046FCDA
:10076C000346002B13D03221022000F01FFC08217D
:10077C00644801F054F84021624801F050F8624B93
:10078C001B78624A117814221846FFF751FD5E4B14
:10079C001B7801335A4203F0030302F0030258BFE3
:1007AC005342DAB2584B1A70012000F0C7FB0346D3
:1007BC00012B05D0012000F0DDFB0346012B0CD1F1
:1007CC00524B1B780133DAB2504B1A704F4B1B78DB
:1007DC00632B02D94D4B05221A70002000F0AEFBA2
:1007EC000346012B05D0002000F0C4FB0346012B6F
:1007FC0005D1414B1E221A70032000F031F9022062
:10080C0000F09CFB0346012B06D0022000F0B2FB4B
:10081C000346012B40F00881374B32221A703221EB
:10082C00032000F0C3FBFFE0022000F0DFFB0346D7
:10083C00002B13D03221022000F0B8FB10213148DC
:10084C0000F0EDFF80212F4800F0E9FF2E4B1B78C4
:10085C002F4A11781E221846FFF7EAFC2A4B1B7808
:10086C0001335A4203F0030302F0030258BF534210
:10087C00DAB2254B1A70012000F060FB0346012B05
:10088C0005D0012000F076FB0346012B0CD1204B48
:10089C001B780133DAB21E4B1A701D4B1B78632B7D
:1008AC0002D91B4B02221A70002000F047FB0346B2
:1008BC00012B05D0002000F05DFB0346012B05D178
:1008CC000D4B28221A70032000F0CAF8022000F009
:1008DC0035FB0346012B06D0022000F04BFB0346F0
:1008EC00012B40F0A380044B32221A7032210320DA
:1008FC0000F05CFB9AE000BF4200002040000020AA
:10090C0041000020000801403E00002003000020B0
:10091C0004000020022000F069FB0346002B14D0D9
:10092C003221022000F042FB2021444800F077FFE6
:10093C004FF48071414800F072FF414B1B78414AE3
:10094C00117828221846FFF773FC3D4B1B780133B6
:10095C005A4203F0030302F0030258BF5342DAB2C7
:10096C00374B1A70012000F0E9FA0346012B05D031
:10097C00012000F0FFFA0346012B0CD1314B1B7800
:10098C000133DAB22F4B1A702E4B1B78632B02D922
:10099C002C4B03221A70002000F0D0FA0346012BD6
:1009AC0005D0002000F0E6FA0346012B05D1264BBA
:1009BC000A221A70032000F053F8022000F0BEFA4D
:1009CC000346012B05D0022000F0D4FA0346012B7C
:1009DC002ED11D4B32221A703221032000F0E6FA80
:1009EC0026E0032000F002FB0346002B22D032212C
:1009FC00032000F0DBFA032000F032F8FFF7A0FB35
:100A0C00124B1A78124B1A70124B1A78124B1A702E
:100A1C000C4B1A78114B1A700B4B00221A7009E010
:100A2C0000BF08E000BF06E000BF04E000BF02E02A
:100A3C0000BF00E000BF00BF80BD00BF0008014048
:100A4C003E00002005000020420000200300002092
:100A5C000000002004000020010000200200002003
:100A6C0080B582B000AF0346FB71FB79002B0FD130
:100A7C0000220821224800F0BAFE00221021204852
:100A8C0000F0B5FE002220211D4800F0B0FE32E03F
:100A9C00FB79012B10D100224021194800F0A7FE50
:100AAC0000228021164800F0A2FE00224FF4807133
:100ABC00134800F09CFE1EE000220821104800F0B4
:100ACC0096FE002210210E4800F091FE00222021FB
:100ADC000B4800F08CFE00224021094800F087FEF4
:100AEC0000228021064800F082FE00224FF4807123
:100AFC00034800F07CFE00BF0837BD4680BD00BF38
:100B0C000008014080B500AF00F070FB00F00EF85B
:100B1C0000F094F800F046F8034801F0C5FA00F034
:100B2C0001F9FFF79FFDFCE76400002080B590B051
:100B3C0000AF07F1180328220021184601F064FECB
:100B4C003B1D00221A605A609A60DA601A61022317
:100B5C00BB610123BB621023FB6200237B6307F1A3
:100B6C001803184600F074FE0346002B01D000F069
:100B7C00D3F80F237B600023BB600023FB600023B2
:100B8C003B6100237B613B1D0021184601F0E0F81E
:100B9C000346002B01D000F0BFF800BF4037BD4624
:100BAC0080BD000080B586B000AF07F108030022BD
:100BBC001A605A609A60DA603B4600221A605A60EA
:100BCC001D4B4FF080421A601B4B41F63F725A602E
:100BDC00194B00229A60184B0922DA60164B00223E
:100BEC001A61154B00229A61134801F00DFA034665
:100BFC00002B01D000F090F84FF48053BB6007F14C
:100C0C00080319460C4801F08BFB0346002B01D05E
:100C1C0000F082F800233B6000237B603B461946C2
:100C2C00054801F063FD0346002B01D000F074F879
:100C3C0000BF1837BD4680BD6400002080B586B06B
:100C4C0000AF07F1080300221A605A609A60DA605C
:100C5C00284B9B69274A43F004039361254B9B69FE
:100C6C0003F004037B607B68224B9B69214A43F0B1
:100C7C00080393611F4B9B6903F008033B603B68BF
:100C8C00002241F6F8511C4800F0B1FD002240F65C
:100C9C007F711A4800F0ABFD0723BB600023FB609B
:100CAC0001233B6107F108031946134800F00EFCC1
:100CBC0041F6F853BB600123FB6000233B61022328
:100CCC007B6107F1080319460B4800F0FFFB40F667
:100CDC007F73BB600123FB6000233B6102237B61BC
:100CEC0007F108031946054800F0F0FB00BF183760
:100CFC00BD4680BD0010024000080140000C0140C0
:100D0C0080B582B000AF786000F062F800F08AF92C
:100D1C0000BF0837BD4680BD80B400AF72B600BFBF
:100D2C00FEE7000080B483B000AF00237B6036E0A8
:100D3C001F4A7B68134401221A701D4A7B681344B6
:100D4C0019781C4A7B6813440A461A70194A7B6846
:100D5C0013441978184A7B6813440A461A70164AC9
:100D6C007B6813441978154A7B6813440A461A7039
:100D7C00134A7B68134400221A70124A7B6813448E
:100D8C0000221A70104A7B68134400221A700F4A12
:100D9C007B68134400221A707B6801337B607B688C
:100DAC00022BC5DD00BF00BF0C37BD4680BC7047B1
:100DBC00500000204C00002048000020440000207F
:100DCC0058000020540000205C000020600000202F
:100DDC0080B582B000AF00237B6091E04D4A7B6808
:100DEC00134419784C4A7B6813440A461A704B4AD0
:100DFC007B6813441978474A7B6813440A461A7077
:100E0C00474A7B6852F8232046497B6831F81330F7
:100E1C001946104600F0D4FC034619463F4A7B683D
:100E2C0013440A461A703C4A7B6813441A783949B1
:100E3C007B680B441B789A425FD1384A7B68134419
:100E4C001A7834497B680B441B789A4255D1364A40
:100E5C007B6813441A7831497B680B441B789A429F
:100E6C002ED02E4A7B68134419782F4A7B68134482
:100E7C000A461A702C4A7B6813441B78002B0FD13E
:100E8C002A4A7B68134401221A70294A7B6813444E
:100E9C0000221A70274A7B68134400221A702CE037
:100EAC00224A7B68134400221A70214A7B6813443F
:100EBC0001221A701F4A7B68134400221A701CE02E
:100ECC00194A7B6813441B78002B16D1194A7B688E
:100EDC0013441B78632B0BD8164A7B6813441B787E
:100EEC000133D9B2134A7B6813440A461A7004E0E2
:100EFC00114A7B68134401221A707B6801337B60B2
:100F0C007B68022B7FF76AAF00BF00BF0837BD4676
:100F1C0080BD00BF48000020440000204C00002091
:100F2C00080000205828000850000020580000201D
:100F3C0054000020600000205C00002080B483B0CE
:100F4C0000AF0346FB71FB79022B0AD8FB79084AE8
:100F5C00D35C012B05D1FB79054A0021D154012327
:100F6C0000E0002318460C37BD4680BC704700BF1C
:100F7C005800002080B483B000AF0346FB71FB79AE
:100F8C00022B0AD8FB79084AD35C012B05D1FB79DB
:100F9C00054A0021D154012300E0002318460C37E8
:100FAC00BD4680BC704700BF5C00002080B483B09D
:100FBC0000AF786039607B68002B0DDB7B68092BF8
:100FCC000ADC08497B683A6841F82320064A7B68AA
:100FDC00002142F8231000E000BF0C37BD4680BC56
:100FEC00704700BFAC000020D400002080B483B058
:100FFC0000AF78607B68002B02DB7B68092B01DD7E
:10100C00002308E0064A7B6852F82330012B0CBF02
:10101C0001230023DBB218460C37BD4680BC704759
:10102C00D400002080B483B000AF00237B601CE0B0
:10103C00124A7B6852F82330002B13DD0F4A7B6871
:10104C0052F823305A1E0D497B6841F823200B4A75
:10105C007B6852F82330002B04DC094A7B680121A1
:10106C0042F823107B6801337B607B68092BDFDD42
:10107C0000BF00BF0C37BD4680BC7047AC000020E1
:10108C00D400002080B485B000AF154B9B69144A86
:10109C0043F001039361124B9B6903F00103BB60A6
:1010AC00BB680F4BDB690E4A43F08053D3610C4B8A
:1010BC00DB6903F080537B607B680A4B5B68FB60E9
:1010CC00FB6823F0E063FB60FB6843F08063FB602C
:1010DC00044AFB68536000BF1437BD4680BC7047A0
:1010EC00001002400000014080B584B000AF786071
:1010FC007B681B68B3F1804F13D10C4BDB690B4A37
:10110C0043F00103D361094BDB6903F00103FB607E
:10111C00FB68002200211C2000F0A1F91C2000F02B
:10112C00BAF900BF1037BD4680BD00BF00100240A9
:10113C0080B400AFFEE780B400AFFEE780B400AF30
:10114C00FEE780B400AFFEE780B400AFFEE780B4EA
:10115C0000AF00BFBD4680BC704780B400AF00BF7D
:10116C00BD4680BC704780B400AF00BFBD4680BC9C
:10117C00704780B500AF00F07FF800BF80BD000065
:10118C0080B500AF024800F0DBFF00BF80BD00BFA0
:10119C006400002080B400AF00BFBD4680BC704727
:1011AC00FFF7F8FF0B480C490C4A002302E0D45817
:1011BC00C4500433C4188C42F9D3094A094C002397
:1011CC0001E013600432A242FBD301F0F9FAFFF7FD
:1011DC0099FC704700000020200000208C2800089B
:1011EC002000002000010020FEE7000080B500AFC9
:1011FC00084B1B68074A43F010031360032000F0F0
:10120C0023F90F2000F008F8FFF73CFF00231846E5
:10121C0080BD00BF0020024080B582B000AF786076
:10122C00124B1A68124B1B7819464FF47A73B3FBA6
:10123C00F1F3B2FBF3F3184600F03BF90346002B35
:10124C0001D001230EE07B680F2B0AD800227968AD
:10125C004FF0FF3000F003F9064A7B68136000235F
:10126C0000E0012318460837BD4680BD140000205D
:10127C001C0000201800002080B400AF054B1B7828
:10128C001A46054B1B681344034A136000BFBD4646
:10129C0080BC70471C000020FC00002080B400AF14
:1012AC00024B1B681846BD4680BC7047FC000020F2
:1012BC0080B485B000AF78607B6803F00703FB60F7
:1012CC000C4BDB68BB60BA684FF6FF031340BB6086
:1012DC00FB681A02BB68134343F0BF6343F400334B
:1012EC00BB60044ABB68D36000BF1437BD4680BCEA
:1012FC00704700BF00ED00E080B400AF044BDB682A
:10130C001B0A03F007031846BD4680BC704700BF9C
:10131C0000ED00E080B483B000AF0346FB7197F999
:10132C000730002B0BDBFB7903F01F02064997F902
:10133C0007305B09012000FA02F241F8232000BFBC
:10134C000C37BD4680BC704700E100E080B483B030
:10135C0000AF03463960FB7197F90730002B0ADBAD
:10136C003B68DAB20C4997F907301201D2B20B4440
:10137C0083F800230AE03B68DAB20849FB7903F0F2
:10138C000F03043B1201D2B20B441A7600BF0C3788
:10139C00BD4680BC704700BF00E100E000ED00E0FE
:1013AC0080B489B000AFF860B9607A60FB6803F074
:1013BC000703FB61FB69C3F10703042B28BF04235C
:1013CC00BB61FB690433062B02D9FB69033B00E0CC
:1013DC0000237B614FF0FF32BB6902FA03F3DA435F
:1013EC00BB681A407B699A404FF0FF317B6901FA68
:1013FC0003F3D9437B680B40134318462437BD468F
:10140C0080BC704780B582B000AF78607B68013BD0
:10141C00B3F1807F01D301230FE00A4A7B68013BC3
:10142C0053600F214FF0FF30FFF790FF054B002268
:10143C009A60044B07221A60002318460837BD46F1
:10144C0080BD00BF10E000E080B582B000AF7860D6
:10145C007868FFF72DFF00BF0837BD4680BD80B50B
:10146C0086B000AF0346B9607A60FB7300237B61E2
:10147C00FFF742FF78617A68B9687869FFF790FFE7
:10148C00024697F90F3011461846FFF75FFF00BF71
:10149C001837BD4680BD80B582B000AF0346FB71E6
:1014AC0097F907301846FFF735FF00BF0837BD46E0
:1014BC0080BD80B582B000AF78607868FFF7A2FF7E
:1014CC00034618460837BD4680BD000080B48BB07B
:1014DC0000AF7860396000237B6200233B6248E1F7
:1014EC0001227B6A02FA03F3FB613B681B68FA6911
:1014FC001340BB61BA69FB699A4240F037813B6883
:10150C005B68A34A93425ED0A14A934275D8A14A24
:10151C00934258D09F4A93426FD89F4A934252D0DD
:10152C009D4A934269D89D4A93424CD09B4A934220
:10153C0063D89B4A934246D0994A93425DD8122B6A
:10154C002AD8122B59D801A252F823F0D31500082F
:10155C00AD150008BF150008011600080716000895
:10156C0007160008071600080716000807160008DB
:10157C0007160008071600080716000807160008CB
:10158C0007160008071600080716000807160008BB
:10159C00B5150008C9150008824A934213D02CE0F7
:1015AC003B68DB683B6229E03B68DB6804333B62E9
:1015BC0024E03B68DB6808333B621FE03B68DB6878
:1015CC000C333B621AE03B689B68002B02D104236E
:1015DC003B6213E03B689B68012B05D108233B62FF
:1015EC007B68FA691A6109E008233B627B68FA6937
:1015FC005A6103E000233B6200E000BFBB69FF2B94
:10160C0001D87B6801E07B6804337B61BB69FF2BED
:10161C0002D87B6A9B0002E07B6A083B9B003B6123
:10162C007B691A680F213B6901FA03F3DB431A400B
:10163C00396A3B6901FA03F31A437B691A603B6808
:10164C005B6803F08053002B00F09080564B9B6935
:10165C00554A43F001039361534B9B6903F001031B
:10166C00BB60BB68514A7B6A9B08023352F823303B
:10167C00FB607B6A03F003039B000F2202FA03F367
:10168C00DB43FA681340FB607B68494A93420DD0F8
:10169C007B68484A934207D07B68474A934201D102
:1016AC00022304E0032302E0012300E000237A6A12
:1016BC0002F0030292009340FA681343FB603B492B
:1016CC007B6A9B080233FA6841F823203B685B680D
:1016DC0003F48013002B06D0384B9A683749BB694A
:1016EC0013438B6006E0354B9A68BB69DB43334987
:1016FC0013408B603B685B6803F40013002B06D02F
:10170C002E4BDA682D49BB691343CB6006E02B4B9B
:10171C00DA68BB69DB4329491340CB603B685B68E3
:10172C0003F40033002B06D0244B5A682349BB69C1
:10173C0013434B6006E0214B5A68BB69DB431F49DE
:10174C0013404B603B685B6803F48033002B06D07E
:10175C001A4B1A681949BB6913430B6006E0174B07
:10176C001A68BB69DB43154913400B607B6A013374
:10177C007B623B681A687B6A22FA03F3002B7FF4C6
:10178C00AFAE00BF00BF2C37BD4680BC704700BF5A
:10179C000000321000003110000022100000211057
:1017AC000000121000001110001002400000014057
:1017BC0000080140000C01400010014000040140F1
:1017CC0080B485B000AF78600B467B807B689A68EC
:1017DC007B881340002B02D00123FB7301E0002314
:1017EC00FB73FB7B18461437BD4680BC704780B436
:1017FC0083B000AF78600B467B8013467B707B78A0
:10180C00002B03D07A887B681A6103E07B881A046A
:10181C007B681A6100BF0C37BD4680BC704780B432
:10182C0085B000AF78600B467B807B68DB68FB6023
:10183C007A88FB6813401A04FB68D9437B880B40F9
:10184C001A437B681A6100BF1437BD4680BC7047D1
:10185C0080B586B000AF78607B68002B01D1012386
:10186C006CE27B681B6803F00103002B00F087809F
:10187C00924B5B6803F00C03042B0CD08F4B5B6812
:10188C0003F00C03082B12D18C4B5B6803F48033F0
:10189C00B3F5803F0BD1894B1B6803F40033002B4D
:1018AC006CD07B685B68002B68D1012346E27B68B7
:1018BC005B68B3F5803F06D1804B1B687F4A43F4CD
:1018CC00803313602EE07B685B68002B0CD17B4B64
:1018DC001B687A4A23F480331360784B1B68774A71
:1018EC0023F4802313601DE07B685B68B3F5A02FA5
:1018FC000CD1724B1B68714A43F4802313606F4BFD
:10190C001B686E4A43F4803313600BE06B4B1B680F
:10191C006A4A23F480331360684B1B68674A23F4CC
:10192C00802313607B685B68002B13D0FFF7B6FC39
:10193C00386108E0FFF7B2FC02463B69D31A642B0E
:10194C0001D90323FAE15D4B1B6803F40033002B30
:10195C00F0D014E0FFF7A2FC386108E0FFF79EFC22
:10196C0002463B69D31A642B01D90323E6E1534B9E
:10197C001B6803F40033002BF0D100E000BF7B6840
:10198C001B6803F00203002B63D04C4B5B6803F025
:10199C000C03002B0BD0494B5B6803F00C03082B9A
:1019AC001CD1464B5B6803F48033002B16D1434BA0
:1019BC001B6803F00203002B05D07B681B69012B0D
:1019CC0001D00123BAE13D4B1B6823F0F8027B6880
:1019DC005B69DB00394913430B603AE07B681B6998
:1019EC00002B20D0364B01221A60FFF757FC3861D0
:1019FC0008E0FFF753FC02463B69D31A022B01D9CE
:101A0C0003239BE12D4B1B6803F00203002BF0D04A
:101A1C002A4B1B6823F0F8027B685B69DB002749C3
:101A2C0013430B6015E0264B00221A60FFF736FCBF
:101A3C00386108E0FFF732FC02463B69D31A022BEF
:101A4C0001D903237AE11D4B1B6803F00203002B21
:101A5C00F0D17B681B6803F00803002B3AD07B683D
:101A6C009B69002B19D0174B01221A60FFF716FC4B
:101A7C00386108E0FFF712FC02463B69D31A022BCF
:101A8C0001D903235AE10D4B5B6A03F00203002BCF
:101A9C00F0D0012000F09AFA1CE00A4B00221A60E8
:101AAC00FFF7FCFB38610FE0FFF7F8FB02463B69E0
:101ABC00D31A022B08D9032340E100BF00100240C7
:101ACC0000004242800442429E4B5B6A03F00203D8
:101ADC00002BE9D17B681B6803F00403002B00F09A
:101AEC00A6800023FB75974BDB6903F08053002B1A
:101AFC000DD1944BDB69934A43F08053D361914BE6
:101B0C00DB6903F08053BB60BB680123FB758E4B14
:101B1C001B6803F48073002B18D18B4B1B688A4A0B
:101B2C0043F480731360FFF7B9FB386108E0FFF7EB
:101B3C00B5FB02463B69D31A642B01D90323FDE0A4
:101B4C00814B1B6803F48073002BF0D07B68DB683F
:101B5C00012B06D17B4B1B6A7A4A43F001031362BB
:101B6C002DE07B68DB68002B0CD1764B1B6A754A29
:101B7C0023F001031362734B1B6A724A23F00403B4
:101B8C0013621CE07B68DB68052B0CD16D4B1B6A68
:101B9C006C4A43F0040313626A4B1B6A694A43F0B4
:101BAC00010313620BE0674B1B6A664A23F00103C7
:101BBC001362644B1B6A634A23F0040313627B6851
:101BCC00DB68002B15D0FFF769FB38610AE0FFF7E3
:101BDC0065FB02463B69D31A41F28832934201D924
:101BEC000323ABE0574B1B6A03F00203002BEED030
:101BFC0014E0FFF753FB38610AE0FFF74FFB024696
:101C0C003B69D31A41F28832934201D9032395E000
:101C1C004C4B1B6A03F00203002BEED1FB7D012B16
:101C2C0005D1484BDB69474A23F08053D3617B686D
:101C3C00DB69002B00F08180424B5B6803F00C03E6
:101C4C00082B61D07B68DB69022B46D13F4B00220D
:101C5C001A60FFF723FB386108E0FFF71FFB024611
:101C6C003B69D31A022B01D9032367E0354B1B6860
:101C7C0003F00073002BF0D17B681B6AB3F5803F37
:101C8C0008D1304B5B6823F400327B689B682D498C
:101C9C0013434B602B4B5B6823F474127B68196AFB
:101CAC007B685B6A0B43274913434B60274B01222C
:101CBC001A60FFF7F3FA386108E0FFF7EFFA024613
:101CCC003B69D31A022B01D9032337E01D4B1B6848
:101CDC0003F00073002BF0D02FE01C4B00221A6095
:101CEC00FFF7DCFA386108E0FFF7D8FA02463B69E7
:101CFC00D31A022B01D9032320E0124B1B6803F0EB
:101D0C000073002BF0D118E07B68DB69012B01D14B
:101D1C00012313E00B4B5B68FB60FB6803F4803220
:101D2C007B681B6A9A4206D1FB6803F470127B68CD
:101D3C005B6A9A4201D0012300E000231846183751
:101D4C00BD4680BD00100240007000406000424261
:101D5C0080B584B000AF786039607B68002B01D10E
:101D6C000123D0E06A4B1B6803F007033A689A42E0
:101D7C0010D9674B1B6823F0070265493B68134376
:101D8C000B60634B1B6803F007033A689A4201D05F
:101D9C000123B8E07B681B6803F00203002B20D002
:101DAC007B681B6803F00403002B05D0594B5B6860
:101DBC00584A43F4E06353607B681B6803F00803E4
:101DCC00002B05D0534B5B68524A43F4605353606D
:101DDC00504B5B6823F0F0027B689B684D491343C2
:101DEC004B607B681B6803F00103002B40D07B68C1
:101DFC005B68012B07D1474B1B6803F40033002BA6
:101E0C0015D101237FE07B685B68022B07D1414B26
:101E1C001B6803F00073002B09D1012373E03D4BC9
:101E2C001B6803F00203002B01D101236BE0394B3B
:101E3C005B6823F003027B685B68364913434B6095
:101E4C00FFF72CFAF8600AE0FFF728FA0246FB6865
:101E5C00D31A41F28832934201D9032353E02D4B1C
:101E6C005B6803F00C027B685B689B009A42EBD1C9
:101E7C00274B1B6803F007033A689A4210D2244B95
:101E8C001B6823F0070222493B6813430B60204B6D
:101E9C001B6803F007033A689A4201D0012332E031
:101EAC007B681B6803F00403002B08D0194B5B689C
:101EBC0023F4E0627B68DB68164913434B607B6854
:101ECC001B6803F00803002B09D0124B5B6823F44A
:101EDC0060527B681B69DB000E4913434B6000F0BA
:101EEC0021F802460B4B5B681B0903F00F030A49F0
:101EFC00CB5C22FA03F3094A1360094B1B681846A2
:101F0C00FFF78AF9002318461037BD4680BD00BF85
:101F1C00002002400010024060280008140000203D
:101F2C001800002080B487B000AF0023FB600023B2
:101F3C00BB6000237B6100237B6000233B611E4B55
:101F4C005B68FB60FB6803F00C03042B02D0082BCE
:101F5C0003D027E0194B3B6127E0FB689B0C03F097
:101F6C000F03174AD35C7B60FB6803F48033002BB0
:101F7C0010D0114B5B685B0C03F00103114AD35C6E
:101F8C00BB607B680D4A02FB03F2BB68B2FBF3F348
:101F9C007B6104E07B680C4A02FB03F37B617B6989
:101FAC003B6102E0054B3B6100BF3B6918461C37A7
:101FBC00BD4680BC704700BF0010024000127A0082
:101FCC00702800088028000800093D0080B485B006
:101FDC0000AF78600A4B1B680A4AA2FB03235B0A1A
:101FEC007A6802FB03F3FB6000BFFB685A1EFA60C1
:101FFC00002BF9D100BF00BF1437BD4680BC704721
:10200C0014000020D34D621080B582B000AF786010
:10201C007B68002B01D1012341E07B6893F83D30B4
:10202C00DBB2002B06D17B68002283F83C20786859
:10203C00FFF75AF87B68022283F83D207B681A6808
:10204C007B6804331946104600F056FA7B6801226F
:10205C0083F846207B68012283F83E207B680122AE
:10206C0083F83F207B68012283F840207B680122A3
:10207C0083F841207B68012283F842207B6801228F
:10208C0083F843207B68012283F844207B6801227B
:10209C0083F845207B68012283F83D2000231846F5
:1020AC000837BD4680BD000080B485B000AF7860B5
:1020BC007B6893F83D30DBB2012B01D0012335E076
:1020CC007B68022283F83D207B681B68DA687B689A
:1020DC001B6842F00102DA607B681B68164A934267
:1020EC0009D07B681B68B3F1804F04D07B681B68F8
:1020FC00124A934211D17B681B689B6803F007035B
:10210C00FB60FB68062B10D07B681B681A687B6829
:10211C001B6842F001021A6007E07B681B681A68B2
:10212C007B681B6842F001021A60002318461437C2
:10213C00BD4680BC704700BF002C0140000400402D
:10214C0080B584B000AF78607B681B68DB68FB608F
:10215C007B681B681B69BB60BB6803F00203002B28
:10216C0020D0FB6803F00203002B1BD07B681B689C
:10217C006FF002021A617B6801221A777B681B6878
:10218C009B6903F00303002B03D0786800F098F9E7
:10219C0005E0786800F08BF9786800F09AF97B68B4
:1021AC0000221A77BB6803F00403002B20D0FB68D5
:1021BC0003F00403002B1BD07B681B686FF0040238
:1021CC001A617B6802221A777B681B689B6903F48F
:1021DC004073002B03D0786800F072F905E0786842
:1021EC0000F065F9786800F074F97B6800221A77C2
:1021FC00BB6803F00803002B20D0FB6803F0080336
:10220C00002B1BD07B681B686FF008021A617B687F
:10221C0004221A777B681B68DB6903F00303002B2D
:10222C0003D0786800F04CF905E0786800F03FF9CD
:10223C00786800F04EF97B6800221A77BB6803F0CF
:10224C001003002B20D0FB6803F01003002B1BD0D5
:10225C007B681B686FF010021A617B6808221A7782
:10226C007B681B68DB6903F44073002B03D0786830
:10227C0000F026F905E0786800F019F9786800F0AC
:10228C0028F97B6800221A77BB6803F00103002B46
:10229C000CD0FB6803F00103002B07D07B681B6894
:1022AC006FF001021A617868FEF72AFDBB6803F033
:1022BC008003002B0CD0FB6803F08003002B07D0AD
:1022CC007B681B686FF080021A61786800F06FFA07
:1022DC00BB6803F04003002B0CD0FB6803F04003F9
:1022EC00002B07D07B681B686FF040021A6178687E
:1022FC0000F0F8F8BB6803F02003002B0CD0FB684F
:10230C0003F02003002B07D07B681B686FF02002C2
:10231C001A61786800F042FA00BF1037BD4680BDE4
:10232C0080B584B000AF786039600023FB737B68A4
:10233C0093F83C30012B01D10223B4E07B680122DD
:10234C0083F83C207B68022283F83D207B681B6865
:10235C009B68BB60BB6823F07703BB60BB6823F44E
:10236C007F43BB607B681B68BA689A603B681B68DC
:10237C00B3F5005F3ED0B3F5005F00F28780B3F594
:10238C00805F00F08680B3F5805F7FD8702B1AD009
:10239C00702B7BD8602B50D0602B77D8502B3CD037
:1023AC00502B73D8402B58D0402B6FD8302B64D087
:1023BC00302B6BD8202B60D0202B67D8002B5CD017
:1023CC00102B5AD062E07B6818683B6899683B68B0
:1023DC005A683B68DB6800F06AF97B681B689B688D
:1023EC00BB60BB6843F07703BB607B681B68BA6853
:1023FC009A604FE07B6818683B6899683B685A683C
:10240C003B68DB6800F053F97B681B689A687B6853
:10241C001B6842F480429A603CE07B6818683B6819
:10242C0059683B68DB681A4600F0CAF87B681B6881
:10243C005021184600F021F92CE07B6818683B68A5
:10244C0059683B68DB681A4600F0E8F87B681B6843
:10245C006021184600F011F91CE07B6818683B6895
:10246C0059683B68DB681A4600F0AAF87B681B6861
:10247C004021184600F001F90CE07B681A683B68B3
:10248C001B681946104600F0F8F803E00123FB73B3
:10249C0000E000BF7B68012283F83D207B680022AE
:1024AC0083F83C20FB7B18461037BD4680BD80B4BA
:1024BC0083B000AF786000BF0C37BD4680BC70475E
:1024CC0080B483B000AF786000BF0C37BD4680BCD1
:1024DC00704780B483B000AF786000BF0C37BD4646
:1024EC0080BC704780B483B000AF786000BF0C37FD
:1024FC00BD4680BC7047000080B485B000AF7860EA
:10250C0039607B681B68FB607B682B4A934207D061
:10251C007B68B3F1804F03D07B68284A934208D183
:10252C00FB6823F07003FB603B685B68FA6813433D
:10253C00FB607B68204A934207D07B68B3F1804FE5
:10254C0003D07B681D4A934208D1FB6823F4407387
:10255C00FB603B68DB68FA681343FB60FB6823F0A5
:10256C0080023B685B691343FB607B68FA681A6006
:10257C003B689A687B68DA623B681A687B689A6287
:10258C007B680D4A934203D13B681A697B681A63D6
:10259C007B6801225A617B681B6903F00103002BE5
:1025AC0005D07B681B6923F001027B681A6100BFB0
:1025BC001437BD4680BC7047002C0140000400401D
:1025CC0080B487B000AFF860B9607A60FB681B6AB2
:1025DC007B61FB681B6A23F00102FB681A62FB68D3
:1025EC009B693B613B6923F0F0033B617B681B01FA
:1025FC003A6913433B617B6923F00A037B617A6977
:10260C00BB6813437B61FB683A699A61FB687A6922
:10261C001A6200BF1C37BD4680BC704780B487B0BF
:10262C0000AFF860B9607A60FB681B6A7B61FB687D
:10263C001B6A23F01002FB681A62FB689B693B6102
:10264C003B6923F470433B617B681B033A6913437A
:10265C003B617B6923F0A0037B61BB681B017A693A
:10266C0013437B61FB683A699A61FB687A691A6269
:10267C0000BF1C37BD4680BC704780B485B000AF2E
:10268C00786039607B689B68FB60FB6823F07003A3
:10269C00FB603A68FB68134343F00703FB607B68FD
:1026AC00FA689A6000BF1437BD4680BC704780B48E
:1026BC0087B000AFF860B9607A603B60FB689B68DC
:1026CC007B617B6923F47F437B613B681A027B68E7
:1026DC001A43BB6813437A6913437B61FB687A69BD
:1026EC009A6000BF1C37BD4680BC704780B485B073
:1026FC0000AF786039607B6893F83C30012B01D1D6
:10270C00022341E07B68012283F83C207B68022293
:10271C0083F83D207B681B685B68FB607B681B68EB
:10272C009B68BB60FB6823F07003FB603B681B6815
:10273C00FA681343FB607B681B68FA685A607B6815
:10274C001B68144A934209D07B681B68B3F1804F15
:10275C0004D07B681B68104A93420CD1BB6823F0F1
:10276C008003BB603B685B68BA681343BB607B68E3
:10277C001B68BA689A607B68012283F83D207B68ED
:10278C00002283F83C20002318461437BD4680BC39
:10279C00704700BF002C01400004004080B483B09F
:1027AC0000AF786000BF0C37BD4680BC704780B46A
:1027BC0083B000AF786000BF0C37BD4680BC70475B
:1027CC0070B500260C4D0D4C641BA410A64209D10B
:1027DC0000F022F800260A4D0A4C641BA410A642F5
:1027EC0005D170BD55F8043B98470136EEE755F816
:1027FC00043B98470136F2E7842800088428000837
:10280C00842800088828000803460244934200D11B
:10281C00704703F8011BF9E7F8B500BFF8BC08BC1A
:10282C009E467047F8B500BFF8BC08BC9E46704782
:10283C0040792430191202780010000001000200C7
:10284C0004000800100020004000000001000200FD
:10285C00040000000000000000000000010203045E
:10286C000607080902030405060708090A0B0C0DE4
:08287C000E0F10100102000014
:042884003101000816
:042888000D01000836
:10288C000502030502030000000801400008014096
:10289C000008014000127A00100000000100000046
:04000005080011AD31
:00000001FF
