:020000040800F2
:1000000000280020F5160008691500086F15000883
:10001000751500087B150008811500080000000018
:10002000000000000000000000000000871500082C
:1000300093150008000000009F150008AB1500088C
:100040003D1700083D1700083D1700083D17000840
:100050003D1700083D1700083D1700083D17000830
:100060003D1700083D1700083D1700083D17000820
:100070003D1700083D1700083D1700083D17000810
:100080003D1700083D1700083D1700083D17000800
:100090003D1700083D1700083D1700083D170008F0
:1000A0003D1700083D1700083D1700083D170008E0
:1000B000B91500083D170008000000003D170008B2
:1000C0003D17000800000000000000003D17000878
:1000D000000000003D1700083D1700080000000068
:1000E0003D1700083D1700083D17000800000000FC
:1000F0000000000000000000000000000000000000
:0C01000000000000000000005FF808F1A3
:10010C0010B5054C237833B9044B13B10448AFF345
:10011C0000800123237010BD20000020000000008F
:10012C006C2D000808B5034B1BB103490348AFF312
:10013C00008008BD00000000240000206C2D000889
:10014C0080B500AF01224FF4F851024801F0F3FDE5
:10015C0000BF80BD000C014080B584B000AF0346E9
:10016C00FB710023FB6015E00E4AFB6832F813109C
:10017C00FB790D4AD35C1A46FB6842FA03F3DBB2F7
:10018C0003F00103DBB21A46084801F0D4FDFB680A
:10019C000133FB60FB68062BE6DD00BF00BF1037A8
:1001AC00BD4680BD902D0008842D0008000C014038
:1001BC0080B582B000AF03460A46FB711346BB7193
:1001CC00FFF7BEFFBB791846FFF7C6FFFB79042B80
:1001DC002FD801A252F823F0F901000807020008F9
:1001EC0015020008230200083102000800224FF417
:1001FC008071124801F09FFD1CE000224FF4007149
:10020C000E4801F098FD15E000224FF480610B4878
:10021C0001F091FD0EE000224FF40061074801F05F
:10022C008AFD07E000224FF48051044801F083FD61
:10023C0000E000BF00BF0837BD4680BD000C014088
:10024C0080B582B000AF0346FB710B46BB71134601
:10025C007B71FB79042B4ED801A252F823F000BF1E
:10026C008102000899020008BB020008D3020008B2
:10027C00F5020008BB79224AA2FB0323DB08DAB2A1
:10028C00FB7911461846FFF793FF35E0BA791C4B02
:10029C00A3FB0213D9080B469B000B445B00D31A3B
:1002AC00DAB2FB7911461846FFF782FF24E07B791E
:1002BC00134AA2FB0323DB08DAB2FB79114618467A
:1002CC00FFF776FF18E07A790D4BA3FB0213D908E0
:1002DC000B469B000B445B00D31ADAB2FB79114638
:1002EC001846FFF765FF07E0BA79FB791146184607
:1002FC00FFF75EFF00E000BF00BF0837BD4680BDC2
:10030C00CDCCCCCC80B582B000AF03460A46FB7195
:10031C001346BB71FB79002B02D0012B23D046E096
:10032C00BB79032B12D0032B16DC012B02D0022B32
:10033C0006D011E0012208211F4801F0FCFC11E05D
:10034C00012220211C4801F0F6FC0BE001221021B7
:10035C00194801F0F0FC05E001220821164801F0D3
:10036C00EAFC00BF23E0BB79032B13D0032B17DC73
:10037C00012B02D0022B06D012E0012240210E48A4
:10038C0001F0D9FC12E001224FF480710A4801F00F
:10039C00D2FC0BE001228021074801F0CCFC05E0E7
:1003AC0001224021044801F0C6FC00BF00BF00BF81
:1003BC000837BD4680BD00BF0008014080B500AFC6
:1003CC00022001F029F80346002B19D00A21022043
:1003DC0001F002F8A34B1B78A34A1178A34A1278B8
:1003EC001846FFF72DFF9F4B1B7801335A4203F041
:1003FC00030302F0030258BF5342DAB2994B1A704E
:10040C009B4B1B78032B00F28C8001A252F823F03B
:10041C002D0400084504000893040008E1040008BA
:10042C00934B01221A70934B1A788F4B1A70282118
:10043C00002000F0D1FF7BE0002000F0EDFF034630
:10044C00002B70D02821002000F0C6FF01210020D5
:10045C00FFF758FF844B1B78013BDAB2824B1A70C2
:10046C00814B1B78002B5ED1814B02221A70824B80
:10047C001A787D4B1A70002000F0C8FA0221002077
:10048C00FFF740FF4FE0002000F0C6FF0346002BB3
:10049C004BD02821002000F09FFF02210020FFF705
:1004AC0031FF714B1B78013BDAB26F4B1A706E4BFC
:1004BC001B78002B39D16E4B03221A706F4B1A78B4
:1004CC00694B1A70002000F0A1FA03210020FFF7FD
:1004DC0019FF2AE0002000F09FFF0346002B26D0D6
:1004EC002821002000F078FF03210020FFF70AFFED
:1004FC005D4B1B78013BDAB25B4B1A705A4B1B7885
:10050C00002B14D15A4B01221A705A4B1A78564BA5
:10051C001A70002000F07AFA01210020FFF7F2FE99
:10052C0005E000BF04E000BF02E000BF00E000BF38
:10053C00534B1B78032B00F28C8001A252F823F052
:10054C005D05000875050008C305000811060008C4
:10055C004B4B02221A70484B1A78444B1A702821C4
:10056C00012000F039FF7BE0012000F055FF03462D
:10057C00002B70D02821012000F02EFF012101203A
:10058C00FFF7C0FE394B1B78013BDAB2374B1A70C0
:10059C00364B1B78002B5ED1394B02221A70364B2E
:1005AC001A78324B1A70012000F030FA0221012027
:1005BC00FFF7A8FE4FE0012000F02EFF0346002BB2
:1005CC004BD02821012000F007FF02210120FFF76A
:1005DC0099FE264B1B78013BDAB2244B1A70234B45
:1005EC001B78002B39D1264B03221A70234B1A7817
:1005FC001E4B1A70012000F009FA03210120FFF7AD
:10060C0081FE2AE0012000F007FF0346002B26D0D4
:10061C002821012000F0E0FE03210120FFF772FEEB
:10062C00124B1B78013BDAB2104B1A700F4B1B7834
:10063C00002B14D1124B01221A700E4B1A780B4B53
:10064C001A70012000F0E2F901210120FFF75AFE97
:10065C0005E000BF04E000BF02E000BF00E000BF07
:10066C0000BF80BD3F0000203C0000203D0000206A
:10067C0040000020000000200200002001000020AB
:10068C004100002080B500AFC14B1B78322B00F32A
:10069C00A481142B04DA002B48D00A2B57D09CE1F0
:1006AC00143B1E2B00F2998101A252F823F000BFDB
:1006BC0087070008E7090008E7090008E7090008B0
:1006CC00E7090008E7090008E7090008E70900083E
:1006DC00E7090008E709000839080008E7090008DD
:1006EC00E7090008E7090008E7090008E70900081E
:1006FC00E7090008E7090008E7090008E70900080E
:10070C00EB080008E7090008E7090008E7090008FA
:10071C00E7090008E7090008E7090008E7090008ED
:10072C00E7090008E7090008BD090008984B0A22F0
:10073C001A70032000F06AF9964B00221A70964B3F
:10074C0000221A700A21022000F046FE4EE1FFF74B
:10075C0035FE002000F008FE0346012B06D00020D9
:10076C0000F01EFE0346012B40F03981884B142209
:10077C001A70032000F04AF931E10821874801F092
:10078C00F2FA4021854801F0EEFA854B1B78854A38
:10079C00117814221846FFF753FD814B1B78013357
:1007AC005A4203F0030302F0030258BF5342DAB279
:1007BC007B4B1A70012000F0D7FD0346012B05D0AE
:1007CC00012000F0EDFD0346012B0CD1754B1B787D
:1007DC000133DAB2734B1A70724B1B78632B02D94C
:1007EC00704B05221A70002000F0BEFD0346012B51
:1007FC0005D0002000F0D4FD0346012B05D1644B3D
:10080C001E221A70032000F001F9022000F0ACFD4A
:10081C000346012B06D0022000F0C2FD0346012B3B
:10082C0040F0DF805A4B32221A70DAE010215B481C
:10083C0001F099FA8021594801F095FA584B1B7830
:10084C00594A11781E221846FFF7FAFC544B1B78B4
:10085C0001335A4203F0030302F0030258BF534220
:10086C00DAB24F4B1A70012000F07EFD0346012BCB
:10087C0005D0012000F094FD0346012B0CD14A4B0E
:10088C001B780133DAB2484B1A70474B1B78632B39
:10089C0002D9454B02221A70002000F065FD034678
:1008AC00012B05D0002000F07BFD0346012B05D168
:1008BC00374B28221A70032000F0A8F8022000F011
:1008CC0053FD0346012B06D0022000F069FD0346C0
:1008DC00012B40F088802E4B32221A7083E02021AD
:1008EC002E4801F040FA4FF480712C4801F03BFA8D
:1008FC002B4B1B782D4A117828221846FFF7A0FCA9
:10090C00274B1B7801335A4203F0030302F0030216
:10091C0058BF5342DAB2224B1A70012000F024FD6A
:10092C000346012B05D0012000F03AFD0346012BB4
:10093C000CD11E4B1B780133DAB21C4B1A701B4BBB
:10094C001B78632B02D9194B03221A70002000F07C
:10095C000BFD0346012B05D0002000F021FD0346C2
:10096C00012B05D10A4B0A221A70032000F04EF815
:10097C00022000F0F9FC0346012B05D0022000F008
:10098C000FFD0346012B30D1014B32221A702CE0A3
:10099C0042000020400000204100002000080140DF
:1009AC003E00002003000020040000200500002071
:1009BC00032000F02BF8FFF7C3FB0D4B1A780D4BFF
:1009CC001A700D4B1A780D4B1A700D4B1A780D4B83
:1009DC001A700D4B00221A7008E000BF06E000BF31
:1009EC0004E000BF02E000BF00E000BF00BF80BD1C
:1009FC000300002000000020040000200100002063
:100A0C0005000020020000204200002080B582B0CA
:100A1C0000AF0346FB71FB79002B0FD1002208219C
:100A2C00224801F088F900221021204801F083F9B6
:100A3C00002220211D4801F07EF932E0FB79012BC8
:100A4C0010D100224021194801F075F900228021B3
:100A5C00164801F070F900224FF48071134801F030
:100A6C006AF91EE000220821104801F064F9002206
:100A7C0010210E4801F05FF9002220210B4801F0F3
:100A8C005AF900224021094801F055F90022802131
:100A9C00064801F050F900224FF48071034801F030
:100AAC004AF900BF0837BD4680BD00BF00080140B1
:100ABC0080B500AF00F03EFE00F03AF800F074F89C
:100ACC0000F0BEF8144801F093FD00F041FB00F07B
:100ADC007FF900F099FD32224FF496610F4800F037
:100AEC006DFA64224FF448710D4800F067FA9622B3
:100AFC004FF4FA610B4800F061FAC8224FF4FA7116
:100B0C00094800F05BFAFA224FF42F71074800F005
:100B1C0055FA00F06BFAFCE7E802002055160008C5
:100B2C007516000895160008B5160008D5160008AD
:100B3C0080B590B000AF07F11803282200211846A9
:100B4C0002F006F93B1D00221A605A609A60DA60C6
:100B5C001A610223BB610123BB621023FB620023D9
:100B6C007B6307F11803184601F016F90346002BB6
:100B7C0001D000F0D6F80F237B600023BB6000236C
:100B8C00FB6000233B6100237B613B1D0021184669
:100B9C0001F082FB0346002B01D000F0C2F800BF2D
:100BAC004037BD4680BD000080B586B000AF07F170
:100BBC00080300221A605A609A60DA603B460022F1
:100BCC001A605A601D4B4FF080421A601B4B092271
:100BDC005A601A4B00229A60184B41F63F72DA6049
:100BEC00164B00221A61154B00229A61134801F032
:100BFC00AFFC0346002B01D000F093F84FF4805368
:100C0C00BB6007F1080319460C4801F02DFE0346A2
:100C1C00002B01D000F085F800233B6000237B60A3
:100C2C003B461946054802F005F80346002B01D057
:100C3C0000F077F800BF1837BD4680BDE8020020F1
:100C4C0080B586B000AF07F1080300221A605A6025
:100C5C009A60DA60284B9B69274A43F0040393613E
:100C6C00254B9B6903F004037B607B68224B9B69DB
:100C7C00214A43F0080393611F4B9B6903F008035F
:100C8C003B603B68002243F6F8711C4801F053F8B6
:100C9C00002241F67F711A4801F04DF80723BB6022
:100CAC000023FB6001233B6107F10803194613483D
:100CBC0000F0B0FE43F6F873BB600123FB60002329
:100CCC003B6102237B6107F1080319460B4800F0D6
:100CDC00A1FE41F67F73BB600123FB6000233B61E7
:100CEC0002237B6107F108031946054800F092FEC8
:100CFC0000BF1837BD4680BD0010024000080140FF
:100D0C00000C014080B582B000AF78607B681B6836
:100D1C00B3F1804F01D100F093F800BF0837BD4606
:100D2C0080BD80B400AF72B600BFFEE790B482B055
:100D3C0000AF00237B600FE07B68013322497A68A7
:100D4C0012011144204A1B0113440C460FCB84E8BA
:100D5C000F007B6801337B601C4B1B78013B7A686E
:100D6C009A42E9DB194B1B78013BDAB2174B1A702C
:100D7C00164B1B78144A1B01134400221A60134BA8
:100D8C001B78114A1B011344043300221A600F4BC9
:100D9C001B780D4A1B011344083300221A600B4BBD
:100DAC001B78094A1B0113440C3300221A70074BA1
:100DBC001B78054A1B0113440D331F221A7000BF08
:100DCC000837BD4690BC704744000020C402002088
:100DDC0080B582B000AF184B1B78002B0CD00023D1
:100DEC00FB7106E0FB79184600F038F9FB7901330A
:100DFC00FB71FB79272BF5D9104B00221A7064215B
:100E0C00032000F0E9FA3221042000F0E5FA642115
:100E1C00052000F0E1FA9621062000F0DDFAC82149
:100E2C00072000F0D9FAFA21082000F0D5FA00BF0B
:100E3C000837BD4680BD00BFC4020020300300202F
:100E4C0080B400AF0B4B1B78002B0FD00A4B5B68A8
:100E5C00002B05D0084B5B68013B074A536005E04B
:100E6C00054B1B7B0133DAB2034B1A7300BFBD4633
:100E7C0080BC7047C40200204400002090B486B0AF
:100E8C0000AFF860B9607A607B800023FB750023AB
:100E9C00BB75474B1B78272B1CD9464B02221A706B
:100EAC00282380E0BA7DFB7D43491B010B440433AE
:100EBC001B681344BA689A4212D3FB7D3E4A1B014D
:100ECC00134404331B68DAB2BB7D1344BB75FB7D42
:100EDC000133FB75364B1B78FA7D9A42E2D300E066
:100EEC0000BF334B1B783B610FE03B69013B324940
:100EFC003A6912011144304A1B0113440C460FCBC2
:100F0C0084E80F003B69013B3B61FB7D3A699A42E7
:100F1C00EBDCFB7D284A1B011344FA681A60BA7D8E
:100F2C00FB7DB9688A1A24491B010B4404331A60EF
:100F3C00FB7D214A1B01134408337A681A60FB7D40
:100F4C001D4A1B0113440C3300221A70FB7D7A8856
:100F5C00D1B2194A1B0113440D330A461A70144BB3
:100F6C001B78FA7D9A4214D2FB7D0133124A1B0185
:100F7C00134404331968FB7D0F4A1B0113440433DB
:100F8C001A68FB7D01338A1A0B491B010B4404338D
:100F9C001A60074B1B780133DAB2054B1A70054BFC
:100FAC0000221A70FB7D18461837BD4690BC70475E
:100FBC00C4020020300300204400002080B584B01F
:100FCC0000AFF860B9607A60074B1B885A1C91B26D
:100FDC00054A11807A68B968F868FFF74FFF034635
:100FEC0018461037BD4680BDC602002080B584B0BF
:100FFC0000AF184B1B78002B28D0174B1B7B002BFA
:10100C0025D0154B1B689847134B1B7B013BDAB261
:10101C00114B1A73104B9B68002B14D00E4B9B6812
:10102C00FB600D4B1B68BB600B4B9B687B600A4BDA
:10103C005B7B7B80FFF77AFE7B887A68F968B868FF
:10104C00FFF71CFF03E0FFF771FE00E000BF103755
:10105C00BD4680BDC40200204400002090B484B082
:10106C0000AF0346FB714FF0FF33FB600023FB72B4
:10107C000EE0FB7A334A1B0113440D331B78FA79CB
:10108C009A4202D1FB7AFB6007E0FB7A0133FB72D8
:10109C002D4B1B78FA7A9A42EBD3FB68B3F1FF3FE6
:1010AC0004D12A4B03221A70012346E0FB68BB7261
:1010BC000FE0BB7A0133BA7A224912011144214A5A
:1010CC001B0113440C460FCB84E80F00BB7A013391
:1010DC00BB72BA7A1C4B1B78013B9A42E9DB1A4B68
:1010EC001B78013BDAB2184B1A70174B1B78154A58
:1010FC001B01134400221A60134B1B78114A1B016D
:10110C001344043300221A600F4B1B780D4A1B0149
:10111C001344083300221A600B4B1B78094A1B013D
:10112C0013440C3300221A70074B1B78054A1B0121
:10113C0013440D331F221A70002318461037BD4676
:10114C0090BC704744000020C402002030030020F3
:10115C0080B483B000AF00237B6036E01F4A7B680D
:10116C00134401221A701D4A7B68134419781C4AD7
:10117C007B6813440A461A70194A7B681344197821
:10118C00184A7B6813440A461A70164A7B68134443
:10119C001978154A7B6813440A461A70134A7B68FF
:1011AC00134400221A70124A7B68134400221A70EE
:1011BC00104A7B68134400221A700F4A7B68134450
:1011CC0000221A707B6801337B607B68022BC5DDC3
:1011DC0000BF00BF0C37BD4680BC7047D402002056
:1011EC00D0020020CC020020C8020020DC0200202B
:1011FC00D8020020E0020020E402002080B582B07A
:10120C0000AF00237B6091E04D4A7B681344197852
:10121C004C4A7B6813440A461A704B4A7B68134449
:10122C001978474A7B6813440A461A70474A7B6808
:10123C0052F8232046497B6831F813301946104682
:10124C0000F062FD034619463F4A7B6813440A4688
:10125C001A703C4A7B6813441A7839497B680B44F2
:10126C001B789A425FD1384A7B6813441A78344908
:10127C007B680B441B789A4255D1364A7B681344E1
:10128C001A7831497B680B441B789A422ED02E4A2F
:10129C007B68134419782F4A7B6813440A461A70EA
:1012AC002C4A7B6813441B78002B0FD12A4A7B688D
:1012BC00134401221A70294A7B68134400221A70C5
:1012CC00274A7B68134400221A702CE0224A7B6860
:1012DC00134400221A70214A7B68134401221A70AD
:1012EC001F4A7B68134400221A701CE0194A7B6861
:1012FC0013441B78002B16D1194A7B6813441B78B6
:10130C00632B0BD8164A7B6813441B780133D9B274
:10131C00134A7B6813440A461A7004E0114A7B682E
:10132C00134401221A707B6801337B607B68022BAB
:10133C007FF76AAF00BF00BF0837BD4680BD00BF56
:10134C00CC020020C8020020D0020020080000209F
:10135C00A02D0008D4020020DC020020D8020020BE
:10136C00E4020020E002002080B483B000AF03460A
:10137C00FB71FB79022B0AD8FB79084AD35C012B51
:10138C0005D1FB79054A0021D154012300E000234B
:10139C0018460C37BD4680BC704700BFDC020020ED
:1013AC0080B483B000AF0346FB71FB79022B0AD8E3
:1013BC00FB79084AD35C012B05D1FB79054A002146
:1013CC00D154012300E0002318460C37BD4680BCE5
:1013DC00704700BFE002002080B483B000AF78609B
:1013EC0039607B68002B0DDB7B68092B0ADC084914
:1013FC007B683A6841F82320064A7B68002142F852
:10140C00231000E000BF0C37BD4680BC704700BF06
:10141C00340300205C03002080B483B000AF7860FC
:10142C007B68002B02DB7B68092B01DD002308E0C5
:10143C00064A7B6852F82330012B0CBF0123002392
:10144C00DBB218460C37BD4680BC70475C030020ED
:10145C0080B483B000AF00237B601CE0124A7B6831
:10146C0052F82330002B13DD0F4A7B6852F82330DF
:10147C005A1E0D497B6841F823200B4A7B6852F8B1
:10148C002330002B04DC094A7B68012142F823102D
:10149C007B6801337B607B68092BDFDD00BF00BFFD
:1014AC000C37BD4680BC7047340300205C03002021
:1014BC0080B485B000AF154B9B69144A43F001030F
:1014CC009361124B9B6903F00103BB60BB680F4B2C
:1014DC00DB690E4A43F08053D3610C4BDB6903F09C
:1014EC0080537B607B680A4B5B68FB60FB6823F076
:1014FC00E063FB60FB6843F08063FB60044AFB68BD
:10150C00536000BF1437BD4680BC704700100240CA
:10151C000000014080B584B000AF78607B681B6828
:10152C00B3F1804F13D10C4BDB690B4A43F0010331
:10153C00D361094BDB6903F00103FB60FB680022FC
:10154C0000211C2000F02FFA1C2000F048FA00BFEC
:10155C001037BD4680BD00BF0010024080B400AF04
:10156C00FEE780B400AFFEE780B400AFFEE780B4C6
:10157C0000AFFEE780B400AFFEE780B400AF00BF61
:10158C00BD4680BC704780B400AF00BFBD4680BC78
:10159C00704780B400AF00BFBD4680BC704780B5BB
:1015AC0000AF00F00DF900BF80BD000080B500AFAA
:1015BC00024801F069F800BF80BD00BFE8020020BE
:1015CC0080B400AF00BFBD4680BC704780B500AF93
:1015DC00FFF758F800BF80BD80B500AFFFF738FFAC
:1015EC0000BF80BD80B500AFFFF708FE00BF80BD17
:1015FC0080B500AF4FF40071024800F0B4FB00BF9F
:10160C0080BD00BF0008014080B500AFC82200219A
:10161C000948FFF7D3FC012200210848FFF7CEFC54
:10162C00012200210648FFF7C9FC0A2200210548C7
:10163C00FFF7C4FC00BF80BDFD150008E5150008D0
:10164C00F1150008D915000880B500AF4FF40071F2
:10165C00044800F088FB002201210420FEF7F0FD75
:10166C0000BF80BD0008014080B500AF4FF4806121
:10167C00044800F078FB002202210420FEF7E0FD74
:10168C0000BF80BD0008014080B500AF4FF4006181
:10169C00044800F068FB002203210420FEF7D0FD73
:1016AC0000BF80BD0008014080B500AF4FF48051F1
:1016BC00044800F058FB002204210420FEF7C0FD72
:1016CC0000BF80BD0008014080B500AF4FF4005151
:1016DC00044800F048FB002205210420FEF7B0FD71
:1016EC0000BF80BD00080140FFF76AFF0B480C49A2
:1016FC000C4A002302E0D458C4500433C4188C4262
:10170C00F9D3094A094C002301E013600432A242C8
:10171C00FBD301F0F9FAFFF7CBF97047000000207A
:10172C0020000020D42D0008200000208803002079
:10173C00FEE7000080B500AF084B1B68074A43F07A
:10174C0010031360032000F023F90F2000F008F8B9
:10175C00FFF7AEFE0023184680BD00BF00200240FC
:10176C0080B582B000AF7860124B1A68124B1B78B0
:10177C0019464FF47A73B3FBF1F3B2FBF3F318464B
:10178C0000F03BF90346002B01D001230EE07B68EF
:10179C000F2B0AD8002279684FF0FF3000F003F9C4
:1017AC00064A7B681360002300E0012318460837C3
:1017BC00BD4680BD140000201C0000201800002035
:1017CC0080B400AF054B1B781A46054B1B681344BD
:1017DC00034A136000BFBD4680BC70471C0000204C
:1017EC008403002080B400AF024B1B681846BD4632
:1017FC0080BC70478403002080B485B000AF786053
:10180C007B6803F00703FB600C4BDB68BB60BA68BA
:10181C004FF6FF031340BB60FB681A02BB6813430F
:10182C0043F0BF6343F40033BB60044ABB68D3602E
:10183C0000BF1437BD4680BC704700BF00ED00E010
:10184C0080B400AF044BDB681B0A03F00703184697
:10185C00BD4680BC704700BF00ED00E080B483B093
:10186C0000AF0346FB7197F90730002B0BDBFB79BC
:10187C0003F01F02064997F907305B09012000FAB3
:10188C0002F241F8232000BF0C37BD4680BC7047E4
:10189C0000E100E080B483B000AF03463960FB7117
:1018AC0097F90730002B0ADB3B68DAB20C4997F941
:1018BC0007301201D2B20B4483F800230AE03B68D4
:1018CC00DAB20849FB7903F00F03043B1201D2B2E0
:1018DC000B441A7600BF0C37BD4680BC704700BF66
:1018EC0000E100E000ED00E080B489B000AFF860EA
:1018FC00B9607A60FB6803F00703FB61FB69C3F115
:10190C000703042B28BF0423BB61FB690433062B9C
:10191C0002D9FB69033B00E000237B614FF0FF32EF
:10192C00BB6902FA03F3DA43BB681A407B699A403D
:10193C004FF0FF317B6901FA03F3D9437B680B400D
:10194C00134318462437BD4680BC704780B582B01F
:10195C0000AF78607B68013BB3F1807F01D301233A
:10196C000FE00A4A7B68013B53600F214FF0FF30B8
:10197C00FFF790FF054B00229A60044B07221A6078
:10198C00002318460837BD4680BD00BF10E000E0BC
:10199C0080B582B000AF78607868FFF72DFF00BF8C
:1019AC000837BD4680BD80B586B000AF0346B96030
:1019BC007A60FB7300237B61FFF742FF78617A68E2
:1019CC00B9687869FFF790FF024697F90F30114616
:1019DC001846FFF75FFF00BF1837BD4680BD80B5C6
:1019EC0082B000AF0346FB7197F907301846FFF73A
:1019FC0035FF00BF0837BD4680BD80B582B000AF53
:101A0C0078607868FFF7A2FF034618460837BD4692
:101A1C0080BD000080B48BB000AF786039600023CB
:101A2C007B6200233B6248E101227B6A02FA03F3EA
:101A3C00FB613B681B68FA691340BB61BA69FB69BF
:101A4C009A4240F037813B685B68A34A93425ED070
:101A5C00A14A934275D8A14A934258D09F4A9342C7
:101A6C006FD89F4A934252D09D4A934269D89D4A5F
:101A7C0093424CD09B4A934263D89B4A934246D0A4
:101A8C00994A93425DD8122B2AD8122B59D801A20D
:101A9C0052F823F01B1B0008F51A0008071B00085E
:101AAC00491B00084F1B00084F1B00084F1B000868
:101ABC004F1B00084F1B00084F1B00084F1B000852
:101ACC004F1B00084F1B00084F1B00084F1B000842
:101ADC004F1B00084F1B0008FD1A0008111B0008C3
:101AEC00824A934213D02CE03B68DB683B6229E0CE
:101AFC003B68DB6804333B6224E03B68DB680833FB
:101B0C003B621FE03B68DB680C333B621AE03B68CE
:101B1C009B68002B02D104233B6213E03B689B685B
:101B2C00012B05D108233B627B68FA691A6109E035
:101B3C0008233B627B68FA695A6103E000233B622D
:101B4C0000E000BFBB69FF2B01D87B6801E07B681C
:101B5C0004337B61BB69FF2B02D87B6A9B0002E0DC
:101B6C007B6A083B9B003B617B691A680F213B69D0
:101B7C0001FA03F3DB431A40396A3B6901FA03F3B8
:101B8C001A437B691A603B685B6803F08053002B37
:101B9C0000F09080564B9B69554A43F001039361CA
:101BAC00534B9B6903F00103BB60BB68514A7B6AD2
:101BBC009B08023352F82330FB607B6A03F003036B
:101BCC009B000F2202FA03F3DB43FA681340FB601D
:101BDC007B68494A93420DD07B68484A934207D0B0
:101BEC007B68474A934201D1022304E0032302E0BD
:101BFC00012300E000237A6A02F003029200934072
:101C0C00FA681343FB603B497B6A9B080233FA6812
:101C1C0041F823203B685B6803F48013002B06D04B
:101C2C00384B9A683749BB6913438B6006E0354BD8
:101C3C009A68BB69DB43334913408B603B685B6834
:101C4C0003F40013002B06D02E4BDA682D49BB6928
:101C5C001343CB6006E02B4BDA68BB69DB432949A5
:101C6C001340CB603B685B6803F40033002B06D059
:101C7C00244B5A682349BB6913434B6006E0214B44
:101C8C005A68BB69DB431F4913404B603B685B6878
:101C9C0003F48033002B06D01A4B1A681949BB6920
:101CAC0013430B6006E0174B1A68BB69DB431549FD
:101CBC0013400B607B6A01337B623B681A687B6A5A
:101CCC0022FA03F3002B7FF4AFAE00BF00BF2C371A
:101CDC00BD4680BC704700BF0000321000003110C0
:101CEC000000221000002110000012100000111042
:101CFC00001002400000014000080140000C0140AF
:101D0C00001001400004014080B485B000AF786041
:101D1C000B467B807B689A687B881340002B02D033
:101D2C000123FB7301E00023FB73FB7B1846143784
:101D3C00BD4680BC704780B483B000AF78600B4662
:101D4C007B8013467B707B78002B03D07A887B6872
:101D5C001A6103E07B881A047B681A6100BF0C3798
:101D6C00BD4680BC704780B485B000AF78600B4630
:101D7C007B807B68DB68FB607A88FB6813401A0405
:101D8C00FB68D9437B880B401A437B681A6100BF00
:101D9C001437BD4680BC704780B586B000AF786004
:101DAC007B68002B01D101236CE27B681B6803F07C
:101DBC000103002B00F08780924B5B6803F00C034F
:101DCC00042B0CD08F4B5B6803F00C03082B12D147
:101DDC008C4B5B6803F48033B3F5803F0BD1894B9C
:101DEC001B6803F40033002B6CD07B685B68002B02
:101DFC0068D1012346E27B685B68B3F5803F06D16E
:101E0C00804B1B687F4A43F4803313602EE07B6861
:101E1C005B68002B0CD17B4B1B687A4A23F4803314
:101E2C001360784B1B68774A23F4802313601DE002
:101E3C007B685B68B3F5A02F0CD1724B1B68714AA1
:101E4C0043F4802313606F4B1B686E4A43F480335A
:101E5C0013600BE06B4B1B686A4A23F480331360EE
:101E6C00684B1B68674A23F4802313607B685B68AC
:101E7C00002B13D0FFF7B6FC386108E0FFF7B2FC7B
:101E8C0002463B69D31A642B01D90323FAE15D4B5B
:101E9C001B6803F40033002BF0D014E0FFF7A2FC16
:101EAC00386108E0FFF79EFC02463B69D31A642BAD
:101EBC0001D90323E6E1534B1B6803F40033002BD9
:101ECC00F0D100E000BF7B681B6803F00203002B1D
:101EDC0063D04C4B5B6803F00C03002B0BD0494BCD
:101EEC005B6803F00C03082B1CD1464B5B6803F4B6
:101EFC008033002B16D1434B1B6803F00203002BDD
:101F0C0005D07B681B69012B01D00123BAE13D4B45
:101F1C001B6823F0F8027B685B69DB0039491343CB
:101F2C000B603AE07B681B69002B20D0364B0122FA
:101F3C001A60FFF757FC386108E0FFF753FC0246C4
:101F4C003B69D31A022B01D903239BE12D4B1B6850
:101F5C0003F00203002BF0D02A4B1B6823F0F8028D
:101F6C007B685B69DB00274913430B6015E0264B4C
:101F7C0000221A60FFF736FC386108E0FFF732FCEC
:101F8C0002463B69D31A022B01D903237AE11D4B7C
:101F9C001B6803F00203002BF0D17B681B6803F075
:101FAC000803002B3AD07B689B69002B19D0174B88
:101FBC0001221A60FFF716FC386108E0FFF712FCEB
:101FCC0002463B69D31A022B01D903235AE10D4B6C
:101FDC005B6A03F00203002BF0D0012000F09AFAA8
:101FEC001CE00A4B00221A60FFF7FCFB38610FE083
:101FFC00FFF7F8FB02463B69D31A022B08D90323DF
:10200C0040E100BF00100240000042428004424206
:10201C009E4B5B6A03F00203002BE9D17B681B68C3
:10202C0003F00403002B00F0A6800023FB75974BF4
:10203C00DB6903F08053002B0DD1944BDB69934A81
:10204C0043F08053D361914BDB6903F08053BB6049
:10205C00BB680123FB758E4B1B6803F48073002B4C
:10206C0018D18B4B1B688A4A43F480731360FFF7BB
:10207C00B9FB386108E0FFF7B5FB02463B69D31AA0
:10208C00642B01D90323FDE0814B1B6803F480739F
:10209C00002BF0D07B68DB68012B06D17B4B1B6AD5
:1020AC007A4A43F0010313622DE07B68DB68002B56
:1020BC000CD1764B1B6A754A23F001031362734BE8
:1020CC001B6A724A23F0040313621CE07B68DB6812
:1020DC00052B0CD16D4B1B6A6C4A43F00403136245
:1020EC006A4B1B6A694A43F0010313620BE0674BAE
:1020FC001B6A664A23F001031362644B1B6A634A32
:10210C0023F0040313627B68DB68002B15D0FFF708
:10211C0069FB38610AE0FFF765FB02463B69D31A9D
:10212C0041F28832934201D90323ABE0574B1B6A2F
:10213C0003F00203002BEED014E0FFF753FB3861E1
:10214C000AE0FFF74FFB02463B69D31A41F2883293
:10215C00934201D9032395E04C4B1B6A03F0020315
:10216C00002BEED1FB7D012B05D1484BDB69474A97
:10217C0023F08053D3617B68DB69002B00F08180F6
:10218C00424B5B6803F00C03082B61D07B68DB6966
:10219C00022B46D13F4B00221A60FFF723FB38611C
:1021AC0008E0FFF71FFB02463B69D31A022B01D94B
:1021BC00032367E0354B1B6803F00073002BF0D151
:1021CC007B681B6AB3F5803F08D1304B5B6823F406
:1021DC0000327B689B682D4913434B602B4B5B682B
:1021EC0023F474127B68196A7B685B6A0B4327497A
:1021FC0013434B60274B01221A60FFF7F3FA386147
:10220C0008E0FFF7EFFA02463B69D31A022B01D91B
:10221C00032337E01D4B1B6803F00073002BF0D039
:10222C002FE01C4B00221A60FFF7DCFA386108E043
:10223C00FFF7D8FA02463B69D31A022B01D90323C4
:10224C0020E0124B1B6803F00073002BF0D118E058
:10225C007B68DB69012B01D1012313E00B4B5B681D
:10226C00FB60FB6803F480327B681B6A9A4206D1E0
:10227C00FB6803F470127B685B6A9A4201D00123FD
:10228C0000E0002318461837BD4680BD0010024000
:10229C00007000406000424280B584B000AF7860AE
:1022AC0039607B68002B01D10123D0E06A4B1B689D
:1022BC0003F007033A689A4210D9674B1B6823F066
:1022CC00070265493B6813430B60634B1B6803F0C3
:1022DC0007033A689A4201D00123B8E07B681B6877
:1022EC0003F00203002B20D07B681B6803F004036F
:1022FC00002B05D0594B5B68584A43F4E06353609C
:10230C007B681B6803F00803002B05D0534B5B68FC
:10231C00524A43F460535360504B5B6823F0F00215
:10232C007B689B684D4913434B607B681B6803F0CB
:10233C000103002B40D07B685B68012B07D1474B16
:10234C001B6803F40033002B15D101237FE07B685D
:10235C005B68022B07D1414B1B6803F00073002B09
:10236C0009D1012373E03D4B1B6803F00203002BE2
:10237C0001D101236BE0394B5B6823F003027B68CE
:10238C005B68364913434B60FFF72CFAF8600AE0A0
:10239C00FFF728FA0246FB68D31A41F288329342BF
:1023AC0001D9032353E02D4B5B6803F00C027B68CF
:1023BC005B689B009A42EBD1274B1B6803F0070329
:1023CC003A689A4210D2244B1B6823F00702224928
:1023DC003B6813430B60204B1B6803F007033A6800
:1023EC009A4201D0012332E07B681B6803F004039E
:1023FC00002B08D0194B5B6823F4E0627B68DB6828
:10240C00164913434B607B681B6803F00803002BD1
:10241C0009D0124B5B6823F460527B681B69DB00AC
:10242C000E4913434B6000F021F802460B4B5B68DE
:10243C001B0903F00F030A49CB5C22FA03F3094A88
:10244C001360094B1B681846FFF78AF900231846DE
:10245C001037BD4680BD00BF002002400010024076
:10246C00A82D0008140000201800002080B487B0AC
:10247C0000AF0023FB600023BB6000237B610023C3
:10248C007B6000233B611E4B5B68FB60FB6803F0C9
:10249C000C03042B02D0082B03D027E0194B3B6113
:1024AC0027E0FB689B0C03F00F03174AD35C7B609F
:1024BC00FB6803F48033002B10D0114B5B685B0C72
:1024CC0003F00103114AD35CBB607B680D4A02FB2D
:1024DC0003F2BB68B2FBF3F37B6104E07B680C4A4C
:1024EC0002FB03F37B617B693B6102E0054B3B61C3
:1024FC0000BF3B6918461C37BD4680BC704700BF07
:10250C000010024000127A00B82D0008C82D0008F7
:10251C0000093D0080B485B000AF78600A4B1B68A1
:10252C000A4AA2FB03235B0A7A6802FB03F3FB60F3
:10253C0000BFFB685A1EFA60002BF9D100BF00BF28
:10254C001437BD4680BC704714000020D34D621078
:10255C0080B582B000AF78607B68002B01D101237D
:10256C0041E07B6893F83D30DBB2002B06D17B68F1
:10257C00002283F83C207868FEF7CCFF7B680222AF
:10258C0083F83D207B681A687B6804331946104633
:10259C0000F056FA7B68012283F846207B68012202
:1025AC0083F83E207B68012283F83F207B68012260
:1025BC0083F840207B68012283F841207B6801224C
:1025CC0083F842207B68012283F843207B68012238
:1025DC0083F844207B68012283F845207B68012224
:1025EC0083F83D20002318460837BD4680BD000007
:1025FC0080B485B000AF78607B6893F83D30DBB277
:10260C00012B01D0012335E07B68022283F83D20A9
:10261C007B681B68DA687B681B6842F00102DA6031
:10262C007B681B68164A934209D07B681B68B3F120
:10263C00804F04D07B681B68124A934211D17B688F
:10264C001B689B6803F00703FB60FB68062B10D02C
:10265C007B681B681A687B681B6842F001021A6071
:10266C0007E07B681B681A687B681B6842F00102F4
:10267C001A60002318461437BD4680BC704700BF53
:10268C00002C01400004004080B584B000AF78609D
:10269C007B681B68DB68FB607B681B681B69BB6025
:1026AC00BB6803F00203002B20D0FB6803F002038D
:1026BC00002B1BD07B681B686FF002021A617B68D1
:1026CC0001221A777B681B689B6903F00303002BBC
:1026DC0003D0786800F098F905E0786800F08BF981
:1026EC00786800F09AF97B6800221A77BB6803F0CF
:1026FC000403002B20D0FB6803F00403002B1BD039
:10270C007B681B686FF004021A617B6802221A77DF
:10271C007B681B689B6903F44073002B03D07868BB
:10272C0000F072F905E0786800F065F9786800F05F
:10273C0074F97B6800221A77BB6803F00803002B3E
:10274C0020D0FB6803F00803002B1BD07B681B68B0
:10275C006FF008021A617B6804221A777B681B6889
:10276C00DB6903F00303002B03D0786800F04CF90D
:10277C0005E0786800F03FF9786800F04EF97B6866
:10278C0000221A77BB6803F01003002B20D0FB68E3
:10279C0003F01003002B1BD07B681B686FF010023A
:1027AC001A617B6808221A777B681B68DB6903F463
:1027BC004073002B03D0786800F026F905E07868A8
:1027CC0000F019F9786800F028F97B6800221A7774
:1027DC00BB6803F00103002B0CD0FB6803F0010372
:1027EC00002B07D07B681B686FF001021A617868B8
:1027FC00FEF788FABB6803F08003002B0CD0FB6853
:10280C0003F08003002B07D07B681B686FF08002FD
:10281C001A61786800F06FFABB6803F04003002B74
:10282C000CD0FB6803F04003002B07D07B681B68BF
:10283C006FF040021A61786800F0F8F8BB6803F09A
:10284C002003002B0CD0FB6803F02003002B07D0D7
:10285C007B681B686FF020021A61786800F042FAFE
:10286C0000BF1037BD4680BD80B584B000AF786026
:10287C0039600023FB737B6893F83C30012B01D14A
:10288C000223B4E07B68012283F83C207B6802229F
:10289C0083F83D207B681B689B68BB60BB6823F09A
:1028AC007703BB60BB6823F47F43BB607B681B680A
:1028BC00BA689A603B681B68B3F5005F3ED0B3F50D
:1028CC00005F00F28780B3F5805F00F08680B3F57F
:1028DC00805F7FD8702B1AD0702B7BD8602B50D098
:1028EC00602B77D8502B3CD0502B73D8402B58D022
:1028FC00402B6FD8302B64D0302B6BD8202B60D072
:10290C00202B67D8002B5CD0102B5AD062E07B6850
:10291C0018683B6899683B685A683B68DB6800F04C
:10292C006AF97B681B689B68BB60BB6843F07703E4
:10293C00BB607B681B68BA689A604FE07B6818685C
:10294C003B6899683B685A683B68DB6800F053F950
:10295C007B681B689A687B681B6842F480429A60AB
:10296C003CE07B6818683B6859683B68DB681A4632
:10297C0000F0CAF87B681B685021184600F021F95A
:10298C002CE07B6818683B6859683B68DB681A4622
:10299C0000F0E8F87B681B686021184600F011F91C
:1029AC001CE07B6818683B6859683B68DB681A4612
:1029BC0000F0AAF87B681B684021184600F001F96A
:1029CC000CE07B681A683B681B681946104600F0DF
:1029DC00F8F803E00123FB7300E000BF7B680122E1
:1029EC0083F83D207B68002283F83C20FB7B184653
:1029FC001037BD4680BD80B483B000AF786000BF97
:102A0C000C37BD4680BC704780B483B000AF786093
:102A1C0000BF0C37BD4680BC704780B483B000AF9C
:102A2C00786000BF0C37BD4680BC704780B483B063
:102A3C0000AF786000BF0C37BD4680BC704700000B
:102A4C0080B485B000AF786039607B681B68FB6030
:102A5C007B682B4A934207D07B68B3F1804F03D03D
:102A6C007B68284A934208D1FB6823F07003FB6013
:102A7C003B685B68FA681343FB607B68204A9342AF
:102A8C0007D07B68B3F1804F03D07B681D4A93421B
:102A9C0008D1FB6823F44073FB603B68DB68FA6881
:102AAC001343FB60FB6823F080023B685B691343B4
:102ABC00FB607B68FA681A603B689A687B68DA622C
:102ACC003B681A687B689A627B680D4A934203D113
:102ADC003B681A697B681A637B6801225A617B68C0
:102AEC001B6903F00103002B05D07B681B6923F0E5
:102AFC0001027B681A6100BF1437BD4680BC704769
:102B0C00002C01400004004080B487B000AFF86096
:102B1C00B9607A60FB681B6A7B61FB681B6A23F0F7
:102B2C000102FB681A62FB689B693B613B6923F0FD
:102B3C00F0033B617B681B013A6913433B617B6982
:102B4C0023F00A037B617A69BB6813437B61FB68E2
:102B5C003A699A61FB687A691A6200BF1C37BD46F4
:102B6C0080BC704780B487B000AFF860B9607A6001
:102B7C00FB681B6A7B61FB681B6A23F01002FB6815
:102B8C001A62FB689B693B613B6923F470433B61B0
:102B9C007B681B033A6913433B617B6923F0A003F9
:102BAC007B61BB681B017A6913437B61FB683A69E3
:102BBC009A61FB687A691A6200BF1C37BD4680BCFB
:102BCC00704780B485B000AF786039607B689B68D3
:102BDC00FB60FB6823F07003FB603A68FB681343EF
:102BEC0043F00703FB607B68FA689A6000BF1437F8
:102BFC00BD4680BC704780B487B000AFF860B96048
:102C0C007A603B60FB689B687B617B6923F47F4344
:102C1C007B613B681A027B681A43BB6813437A6971
:102C2C0013437B61FB687A699A6000BF1C37BD4611
:102C3C0080BC704780B485B000AF786039607B6829
:102C4C0093F83C30012B01D1022341E07B68012237
:102C5C0083F83C207B68022283F83D207B681B684C
:102C6C005B68FB607B681B689B68BB60FB6823F040
:102C7C007003FB603B681B68FA681343FB607B685E
:102C8C001B68FA685A607B681B68144A934209D027
:102C9C007B681B68B3F1804F04D07B681B68104ABB
:102CAC0093420CD1BB6823F08003BB603B685B682C
:102CBC00BA681343BB607B681B68BA689A607B6810
:102CCC00012283F83D207B68002283F83C200023FE
:102CDC0018461437BD4680BC704700BF002C01401D
:102CEC000004004080B483B000AF786000BF0C37A4
:102CFC00BD4680BC704780B483B000AF786000BF25
:102D0C000C37BD4680BC704770B500260C4D0D4C81
:102D1C00641BA410A64209D100F022F800260A4D2B
:102D2C000A4C641BA410A64205D170BD55F8043B97
:102D3C0098470136EEE755F8043B98470136F2E721
:102D4C00CC2D0008CC2D0008CC2D0008D02D00086F
:102D5C0003460244934200D1704703F8011BF9E784
:102D6C00F8B500BFF8BC08BC9E467047F8B500BF6C
:082D7C00F8BC08BC9E4670473C
:102D8400407924301912027800100000010002007A
:102D940004000800100020004000000001000200B0
:102DA4000400000000000000000000000102030411
:102DB4000607080902030405060708090A0B0C0D97
:082DC4000E0F101001020000C7
:042DCC0031010008C9
:042DD0000D010008E9
:102DD4000502030502030000000801400008014049
:102DE4000008014000127A001000000001000000F9
:04000005080016F5E4
:00000001FF
